:100000000C9464000C948C000C948C000C944907A4
:100010000C9449070C9449070C948C000C946F06BF
:100020000C948C000C948C000C948C000C94C107E4
:100030000C948C000C948C000C948C000C948C0010
:100040000C9425060C948C000C9417070C94F10664
:100050000C948C000C948C000C948C000C948C00F0
:100060000C948C000C948C000000000024002700ED
:100070002A0000000008000201000003040700003D
:1000800000000000000002000000002300260029FC
:100090000000000000250028002B000404040404D4
:1000A0000404040202020202020303030303030125
:1000B00002040810204080010204081020010204FC
:1000C000081020007D08610C11241FBECFEFD8E07E
:1000D000DEBFCDBF11E0A0E0B1E0E2ECF0E202C093
:1000E00005900D92A638B107D9F722E0A6E8B1E055
:1000F00001C01D92AD3EB207E1F710E0C3E6D0E0CB
:1001000004C02197FE010E945C0EC236D107C9F7D8
:100110000E94B8090C9454100C9400008F929F9286
:10012000AF92BF92FF920F931F93CF93DF93F09004
:10013000E6022BE02F1508F450C02091E80208E5F4
:1001400012E0021B110927FD1395000F111F000F6C
:10015000111F2091E702C8E8D0E0C21BD10927FD9A
:10016000D395CC0FDD1FCC0FDD1F4E010D2E000CE3
:10017000AA08BB08DC0197FF02C0B0E0A0E098012C
:10018000012E000C440B550B281939094A095B094B
:100190000E94AA0D24EB30E040E050E00E94800D68
:1001A000820E931EA41EB51E8C169D062CF0E8012F
:1001B000801691060CF4E4012297CC0FDD1F2FB7B7
:1001C000F8948F2D90E0FC01EE0FFF1FE80FF91F50
:1001D000EC57FD4FD283C1832FBFDF91CF911F9189
:1001E0000F91FF90BF90AF909F908F90089590E0F7
:1001F000FC01EE58FF4F2491FC01E155FF4F349173
:10020000FC01E556FF4FE491EE23C9F0222339F0BB
:10021000233001F1A8F4213019F1223029F1F0E066
:10022000EE0FFF1FEF56FF4FA591B4918FB7F894D3
:10023000EC91611126C030953E233C938FBF089509
:100240002730A9F02830C9F0243049F78091800088
:100250008F7D03C0809180008F7780938000DFCFF7
:1002600084B58F7784BDDBCF84B58F7DFBCF809144
:10027000B0008F778093B000D2CF8091B0008F7D97
:10028000F9CF3E2BDACFCF93DF9390E0FC01E1551D
:10029000FF4F249185569F4FFC0184918823D1F014
:1002A00090E0880F991FFC01E859FF4FA591B49188
:1002B000FC01EF56FF4FC591D49161110EC09FB75D
:1002C000F8948C91E22FE0958E238C932881E22381
:1002D000E8839FBFDF91CF9108958FB7F894EC9199
:1002E000E22BEC938FBFF6CF8F929F92AF92BF928B
:1002F000CF92DF92EF92FF920F931F93CF938C01D7
:100300006A017B0180910001863079F08F3F09F40A
:100310004FC0CF911F910F91FF90EF90DF90CF9042
:10032000BF90AF909F908F900895E6E8F0E0C49161
:10033000C7FDEFCF61E086E00E944301C1114EC0CE
:10034000980150E040E068E478EE81E090E00E949F
:10035000800D49015A0181E0881A9108A108B1086D
:1003600085B5887F836085BDD801AA0FBB1FA70113
:1003700096010E949F0D28EE33E040E050E00E947D
:10038000E90DC13009F4B4C0C23009F4C3C0C111D1
:10039000C0CF87BC2093E3013093E4014093E50193
:1003A0005093E60180916E00826080936E00B1CF21
:1003B00086E080930001E6E8F0E0C491CF3F09F4C5
:1003C000A8CFC13009F43DC018F1C23009F457C0BC
:1003D000C7FD9FCF61E086E00E944301980150E095
:1003E00040E0C23009F06DC060E970ED83E090E05C
:1003F0000E94800D49015A0181E0881A9108A108E4
:10040000B1088091B100887F83608093B100ACCF48
:1004100014BC15BC84B5826084BD85B5816085BD82
:10042000E1EAF0E0E491F0E0EE0FFF1FEF56FF4F3E
:1004300085919491E5EBF0E0E491E093DA01C0E07E
:1004400079CF1092800010928100809181008860A5
:100450008093810080918100816080938100E1EA36
:10046000F0E0E491F0E0EE0FFF1FEF56FF4F8591B3
:100470009491E5EBF0E0E491E093D9015BCF109229
:10048000B0001092B1008091B00082608093B00003
:100490008091B10081608093B100E1EAF0E0E491E5
:1004A000F0E0EE0FFF1FEF56FF4F85919491909370
:1004B000D8018093D701E5EBF0E0E491E093D60119
:1004C00039CF60E072E18AE790E00E94800D490137
:1004D0005A0181E0881A9108A108B108C13009F0D9
:1004E00043CF80918100887F8160809381003CCFE1
:1004F00090928900809288002093DF013093E00180
:100500004093E1015093E20180916F0082608093FB
:100510006F00FFCE8092B3002093DB013093DC01AB
:100520004093DD015093DE018091700082608093E2
:100530007000EFCE8E50806480937C0080917A00B2
:10054000806480937A0080917A0086FDFCCF809150
:1005500078009091790008953FB7F8948091D20186
:100560009091D301A091D401B091D50126B5A89B5B
:1005700005C02F3F19F00196A11DB11D3FBFBA2F35
:10058000A92F982F8827BC01CD01620F711D811DF5
:10059000911D42E0660F771F881F991F4A95D1F77A
:1005A00008958F929F92AF92BF92CF92DF92EF9277
:1005B000FF924B015C010E94AC026B017C010E9426
:1005C000AC026C197D098E099F09683E7340810554
:1005D0009105A8F321E0821A9108A108B10888EEDC
:1005E000C80E83E0D81EE11CF11C81149104A10403
:1005F000B10429F7FF90EF90DF90CF90BF90AF90BC
:100600009F908F900895AF92BF92CF92DF92EF921A
:10061000FF920F931F93CF93DF936C017B018B01AC
:10062000040F151FEB015E01AE18BF08C017D107FC
:1006300059F06991D601ED91FC910190F081E02D86
:10064000C6010995892B79F7C501DF91CF911F91DB
:100650000F91FF90EF90DF90CF90BF90AF900895F3
:10066000FC01538D448D252F30E0842F90E0821BB8
:10067000930B541710F0CF96089501970895FC013D
:10068000918D828D981761F0A28DAE0FBF2FB11D95
:100690005D968C91928D9F5F9F73928F90E00895ED
:1006A0008FEF9FEF0895FC01918D828D981731F0A7
:1006B000828DE80FF11D858D90E008958FEF9FEFFB
:1006C0000895FC01918D228D892F90E0805C9F4FD1
:1006D000821B91098F739927089587EE91E00E94FC
:1006E000610321E0892B09F420E0822F089580E046
:1006F00090E0892B29F00E946D0381110C94000079
:100700000895FC01A48DA80FB92FB11DA35ABF4FA6
:100710002C91848D90E001968F739927848FA68900
:10072000B7892C93A089B1898C91837080648C9354
:10073000938D848D981306C00288F389E02D808103
:100740008F7D80830895EF92FF920F931F93CF9335
:10075000DF93EC0181E0888F9B8D8C8D98131AC0FC
:10076000E889F989808185FF15C09FB7F894EE89E3
:10077000FF896083E889F989808183708064808340
:100780009FBF81E090E0DF91CF911F910F91FF908B
:10079000EF900895F62E0B8D10E00F5F1F4F0F7333
:1007A0001127E02E8C8D8E110CC00FB607FCFACFEE
:1007B000E889F989808185FFF5CFCE010E94810308
:1007C000F1CFEB8DEC0FFD2FF11DE35AFF4FF082BF
:1007D0009FB7F8940B8FEA89FB8980818062CFCF25
:1007E000CF93DF93EC01888D8823B9F0AA89BB8968
:1007F000E889F9898C9185FD03C0808186FD0DC053
:100800000FB607FCF7CF8C9185FFF2CF808185FF73
:10081000EDCFCE010E948103E9CFDF91CF91089502
:100820002091C9013091CA012817390771F49091BC
:10083000C7018091C801981741F0E091C701F0E02D
:10084000E957FE4F808190E008958FEF9FEF089564
:100850000895EF92FF920F931F93CF93DF93DC01E4
:100860005C96ED90FC905D97E114F10479F481E0E1
:1008700090E013969C938E93129790E080E0DF9126
:10088000CF911F910F91FF90EF9008955196ED91A8
:10089000FC91529750968C915097982F90950FB746
:1008A0005E962C915E97122F127021FD6095F89440
:1008B0002081112319F1282B2083E7012197F1F7DB
:1008C00028E0462F50E0308160FF1AC0382B30837B
:1008D000E7012197F1F7BA0175956795215089F7DE
:1008E000112381F08081892380830FBF5C968D91D5
:1008F0009C910197F1F781E090E0C1CF2923DCCFF3
:100900003923E5CF9081892BEFCF2091C901309118
:10091000CA012817390761F48091C8012091C701E5
:1009200090E0805C9F4F821B91098F7399270895F7
:1009300090E080E008952091C9013091CA01281704
:100940003907B9F49091C7018091C801981789F0CF
:10095000E091C701F0E0E957FE4F80812091C70187
:1009600030E02F5F3F4F2F7333272093C70190E074
:1009700008958FEF9FEF0895089590E080E0089527
:10098000CF93DF93EC0160E08E810E94F70061E07D
:100990008E810E94F70060E08E810E94F7008BE854
:1009A00091E00197F1F7DF91CF910895CF92DF9217
:1009B000EF92FF920F931F93CF93DF936C017C0113
:1009C00087E0E80EF11CD0E0C0E0062F10E0B8018F
:1009D0000C2E02C0759567950A94E2F76170F701D5
:1009E00081917F010E94F7002196C430D10579F7EB
:1009F000C601DF91CF911F910F91FF90EF90DF9093
:100A0000CF900C94C004CF92DF92EF92FF920F939D
:100A10001F93CF93DF93EC01F62E642F8C810E94FD
:100A2000F7008D818F3F19F060E00E94F7000F2DD5
:100A300010E08F8584FF25C06E0187E0C80ED11CB1
:100A4000F12CE12CB8010E2C02C0759567950A9423
:100A5000E2F76170F60181916F010E94F700FFEFEC
:100A6000EF1AFF0A88E0E816F10461F7CE01DF9182
:100A7000CF911F910F91FF90EF90DF90CF900C944A
:100A8000C004B80184E0759567958A95E1F7CE01B9
:100A90000E94D6046F2DCE01DF91CF911F910F914F
:100AA000FF90EF90DF90CF900C94D60440E0682F39
:100AB0008EEC92E00C94030581E00E9456058BE3D6
:100AC0009FE10197F1F70895CF93DF93623029F406
:100AD0009091DD0298609093DD026093E1021092A4
:100AE000E20290E49093E3028093E402805C8093BE
:100AF000E50261E08091D2020E9443018091D3021D
:100B00008F3F19F061E00E94430161E08091D402BF
:100B10000E944301CEECD2E09E012E5C32408091D7
:100B2000DD0284FD0BC084E090E021962817390790
:100B300044F461E08E810E944301EECF88E090E0B2
:100B4000F4CF8BE39DE00197F1F760E08091D20252
:100B50000E94F70060E08091D4020E94F70080912B
:100B6000D3028F3F19F060E00E94F7008091DD0210
:100B700084FD34C063E08EEC92E00E94D604CBE4A6
:100B8000D6E4CE010197F1F763E08EEC92E00E948B
:100B9000D6042197F1F763E08EEC92E00E94D60430
:100BA00083E592E00197F1F762E08EEC92E00E941B
:100BB000D6048091DD0280620E94560584E0809315
:100BC000DE028CE00E9456050E945C0582E0809364
:100BD000DF0286E0DF91CF910C94560580620E947F
:100BE00056058BE496E40197F1F78091DD0280626F
:100BF0000E94560583E592E00197F1F78091DD02AE
:100C000080620E945605D5CF9091E102891710F0BD
:100C10008FEF890FE82FF0E0E253FD4F8489806861
:100C20000C94560541E00E94030581E090E0089590
:100C3000FC0101900020E9F73197AF01481B590BE7
:100C4000BC018EEC92E00C9403031F920F920FB63E
:100C50000F9211242F933F938F939F93AF93BF9342
:100C60008091CE019091CF01A091D001B091D1019E
:100C70003091CD0123E0230F2D3758F50196A11DAA
:100C8000B11D2093CD018093CE019093CF01A0930D
:100C9000D001B093D1018091D2019091D301A09164
:100CA000D401B091D5010196A11DB11D8093D2014F
:100CB0009093D301A093D401B093D501BF91AF918C
:100CC0009F918F913F912F910F900FBE0F901F908A
:100CD000189526E8230F0296A11DB11DD2CF1F92B1
:100CE0000F920FB60F9211242F933F934F935F9360
:100CF0006F937F938F939F93AF93BF93EF93FF93E4
:100D00008091DB019091DC01A091DD01B091DE01C9
:100D1000892B8A2B8B2BD1F19091D601E091D701B1
:100D2000F091D8018081892780838091DB019091A7
:100D3000DC01A091DD01B091DE01181619061A063A
:100D40001B069CF48091DB019091DC01A091DD01F8
:100D5000B091DE010197A109B1098093DB01909365
:100D6000DC01A093DD01B093DE01FF91EF91BF9113
:100D7000AF919F918F917F916F915F914F913F9133
:100D80002F910F900FBE0F901F901895809100012A
:100D9000E6E8F0E0E4919FEF90930001E13051F03C
:100DA00030F0E23069F060E00E94F700DECF109290
:100DB0006E00F9CF90916F009D7F90936F00F3CFFD
:100DC000909170009D7F9093700091E09093B0009F
:100DD0009091B100987F94609093B1001092B3000D
:100DE000E2CF1F920F920FB60F9211242F933F93D1
:100DF0004F935F936F937F938F939F93AF93BF9323
:100E0000EF93FF9387EE91E00E948103FF91EF91B2
:100E1000BF91AF919F918F917F916F915F914F9112
:100E20003F912F910F900FBE0F901F9018951F921A
:100E30000F920FB60F9211242F938F939F93EF93DE
:100E4000FF93E091F701F091F8018081E091FD01BD
:100E5000F091FE0182FD1BC09081809100028F5FA6
:100E60008F7320910102821741F0E0910002F0E0BF
:100E7000E951FE4F958F80930002FF91EF919F9172
:100E80008F912F910F900FBE0F901F90189580811A
:100E9000F4CF1F920F920FB60F9211242F933F930E
:100EA0004F935F936F937F938F939F93AF93BF9372
:100EB000EF93FF93E091C901F091CA01309749F097
:100EC000A685B7858585968D91FF14C09C91892351
:100ED000A1F4FF91EF91BF91AF919F918F917F917D
:100EE0006F915F914F913F912F910F900FBE0F9097
:100EF0001F9018959C91892361F7A389B4899C91CF
:100F00008589809589238C93868997890197F1F744
:100F1000608D718DA685B785558538E020E0CB01C1
:100F20000197F1F7822F90E095958795282F4C91A6
:100F3000452309F02068315091F7868D81FD209579
:100F40008091C80190E001968F7399273091C70175
:100F5000381799F0A091C801B0E0A957BE4F2C9363
:100F60008093C801828D938D0197F1F7A389B4898D
:100F70008C919589892B8C93ACCF868D8160868FDF
:100F8000F1CF1F920F920FB60F9211242F933F9320
:100F90004F935F936F937F938F939F93AF93BF9381
:100FA000CF93DF93EF93FF9380918601C091A802C6
:100FB000D0E087FF24C010928500109284008091B9
:100FC00086018F5F8093860180918601082E000C38
:100FD000990B8C179D0724F4809186018C30C4F105
:100FE0008091840090918500049680349C4908F497
:100FF0007AC08091840090918500049676C080919B
:101000008601082E000C990B8C179D07C4F6E09101
:1010100086018E2FEE0F990BFC01EE0FFF1FE80FDC
:10102000F91FEC57FD4F808186FFC9CFE091860103
:101030008E2FEE0F990BFC01EE0FFF1FE80FF91F2B
:10104000EC57FD4F808160E08F730E94F700B7CFAF
:101050002091840030918500E09186018E2FEE0F63
:10106000990BFC01EE0FFF1FE80FF91FEC57FD4F26
:1010700081819281820F931F9093890080938800D1
:10108000E09186018E2FEE0F990BFC01EE0FFF1FF2
:10109000E80FF91FEC57FD4F808186FF11C0E091EA
:1010A00086018E2FEE0F990BFC01EE0FFF1FE80F4C
:1010B000F91FEC57FD4F808161E08F730E94F700AC
:1010C000FF91EF91DF91CF91BF91AF919F918F9160
:1010D0007F916F915F914F913F912F910F900FBE34
:1010E0000F901F90189580E49CE99093890080935D
:1010F00088008FEF80938601E3CF1092EA0110926F
:10110000E90188EE93E0A0E0B0E08093EB019093DA
:10111000EC01A093ED01B093EE018BE091E0909390
:10112000E8018093E70185EC90E09093F4018093CF
:10113000F30184EC90E09093F6018093F50180EC4C
:1011400090E09093F8018093F70181EC90E0909308
:10115000FA018093F90182EC90E09093FC01809376
:10116000FB0186EC90E09093FE018093FD011092CC
:10117000000210920102109202021092030280916A
:10118000A8028C3008F0DBC091E0980F9093A80281
:101190008093E60290E0FC01EE0FFF1FE80FF91FBD
:1011A000EC57FD4F88EB9BE0928381831092D10234
:1011B0001092D0028FE291E09093CF028093CE0202
:1011C0008CE08093D2028FEF8093D3028BE08093E8
:1011D000D40285E08093D50284E08093D60283E038
:1011E0008093D70282E08093D8021092D9021092A5
:1011F000DA021092DB021092DC021092DD0261E052
:1012000080E10E9464051092B2021092B10288EE51
:1012100093E0A0E0B0E08093B3029093B402A09377
:10122000B502B093B6028DE191E09093B002809345
:10123000AF021092C6021092C5021092C80210921C
:10124000C7021092CA021092C9021092CC021092E8
:10125000CB026091CD026E7F6D7F6093CD0266956B
:10126000617081E068278AE00E94F70061E08AE00F
:101270000E944301E9EBF0E0E491E093BF02E5EA6C
:10128000F0E0E491F0E0EE0FFF1FEF56FF4F859185
:1012900094919093C1028093C00260E089E00E9423
:1012A00043018091CD0281FD04C061E089E00E948C
:1012B000F70089E08093BB02E8EBF0E0E491E09373
:1012C000BC02E4EAF0E0E491F0E0EE0FFF1FE95722
:1012D000FF4F859194919093BE028093BD0210922E
:1012E000AA021092A9021092AC021092AB021092C4
:1012F000AE021092AD0261E070E090E080E00E94EA
:10130000870F009701F19093AA028093A90210928F
:10131000AC021092AB022091AD023091AE02232BB1
:1013200011F4FC0110821092AE021092AD0265E73A
:1013300071E08091A9029091AA020C944D108FEF58
:101340008093E60233CF8091A9029091AA02009780
:1013500011F00E94FE0E1092AA021092A9021092A1
:10136000AE021092AD021092AC021092AB02089540
:10137000789484B5826084BD84B5816084BD85B570
:10138000826085BD85B5816085BD80916E0081607C
:1013900080936E0010928100809181008260809322
:1013A0008100809181008160809381008091800024
:1013B0008160809380008091B10084608093B1004F
:1013C0008091B00081608093B00080917A00846049
:1013D00080937A0080917A00826080937A00809175
:1013E0007A00816080937A0080917A00806880938F
:1013F0007A001092C10061E088E00E94430161E040
:1014000081E00E94430161E087E00E9443018091F6
:10141000E6028C3008F051C061E08DE00E9443018B
:101420008091E602282F30E0F901EE0FFF1FE20F56
:10143000F31FEC57FD4F9081907C9D60908310923C
:10144000E7021092E8022CE0622F0E94500E829F69
:10145000B001112430E020E0AB01420F531FFA012C
:10146000EE0FFF1FE40FF51FEC57FD4F908196FD27
:1014700016C02F5F3F4F2C30310571F781110FC01F
:101480001092800082E0809381001092850010927B
:101490008400B19A80916F00826080936F00E09128
:1014A000E6028E2F90E0FC01EE0FFF1FE80FF91F00
:1014B000EC57FD4F80818064808361E086E00E946C
:1014C000430162E08EE00E94640564E670E080E023
:1014D00090E00E94D10260E08EE00E94430160E053
:1014E0008FE00E94430161E086E00E94430161E0D9
:1014F00087E00E94430161E08AE00E94430160E0CE
:1015000087E00E94F70060E08AE00E94F7001092F6
:10151000CA021092C9021092C8021092C702109219
:10152000C6021092C5028DE991E09093CC0280939F
:10153000CB029091BB02963108F047C02DEB30E012
:101540003093C6022093C5022BE931E03093C802E4
:101550002093C7022CE231E03093CA022093C902E3
:101560002091680084E0983048F031E09E3008F423
:1015700030E081E001C0880F3A95EAF7822B809332
:1015800068002DE630E0983050F02BE630E09E30D9
:1015900030F02CE630E0963110F030E020E030936F
:1015A000C3022093C202292F30E0983008F055C1C1
:1015B00081E001C0880F9A95EAF78093C402809178
:1015C000CB029091CC020197F1F78091C9029091E2
:1015D000CA02892B49F1E091C901F091CA0182E068
:1015E000EF3AF80709F1309739F0A389B4899C9153
:1015F0008589809589238C938091CD028E7F8093FD
:10160000CD021092C8011092C7018FEA92E0909328
:10161000CA018093C901E091C202F091C3028081A6
:101620009091C402892B8083E091F701F091F80139
:1016300082E08083E091F301F091F4011082E09167
:10164000F501F091F6018FEC80831092FF01E0919B
:10165000FB01F091FC0186E08083E091F901F091BB
:10166000FA01808180618083E091F901F091FA01B3
:10167000808188608083E091F901F091FA01808196
:1016800080688083E091F901F091FA0180818F7D7B
:10169000808300E010E08EE00E949A028FE00E94BA
:1016A0009A028EE00E949A02BC01990F880B990B56
:1016B0000E94870C20E030E040EA50E40E94C20C17
:1016C00020E030E048EC52E40E94C20C20E030E020
:1016D00040E85AE30E94C20C6B017C018FE00E943B
:1016E0009A02BC01990F880B990B0E94870C20E08D
:1016F00030E040EA50E40E94C20C20E030E048ECC8
:1017000052E40E94C20C20E030E040E85AE30E941C
:10171000C20C0E941A0EEB017093CC016093CB01B6
:1017200069E170E080E090E00E94D102C701B6015B
:101730000E941A0E623371051CF4E2970CF49AC0F1
:1017400061E088E00E94F70061E087E00E94F70016
:1017500061E08AE00E94F7000E945C0580E00E9440
:10176000040687E391E00E94180681E00E940406C7
:1017700088E491E00E94180664EF71E080E090E058
:101780000E94D1020E945C0580E00E94040688E568
:1017900091E00E94180681E00E94040688E491E02E
:1017A0000E94180662E370E080E090E00E94D1029F
:1017B00044EF51E060E070E087E194E00E94740142
:1017C00060E971E080E090E00E94D1024CE251E0DB
:1017D00060E070E085E594E00E94740160E971E0EA
:1017E00080E090E00E94D10244E650E060E070E0CA
:1017F00087E994E00E94740162E370E080E090E089
:101800000E94D102D0E0C0E0CE010E948E006FE0C5
:1018100070E080E090E00E94D1022196CB35D105A6
:1018200099F7CAE5D0E0CE010E948E006FE070E02B
:1018300080E090E00E94D1022197C53A8FEFD8074F
:1018400091F70115110509F426CF0E946D03882335
:1018500009F421CF0E9400001ECF9E3040F4285092
:10186000310981E001C0880F2A95EAF7A6CE2E50F3
:101870003109F7CF60E087E00E94F70062E370E093
:1018800080E090E00E94D10260E087E00E94F700D3
:1018900060E08AE00E94F70060E088E00E94F700C4
:1018A0000E945C0580E00E94040686E691E00E94AA
:1018B000180681E00E94040686E791E00E9418065F
:1018C000C0CF8091A9029091AA02009711F00E94C6
:1018D000FE0E8DE191E09093B0028093AF02809173
:1018E000C9019091CA018F5A924071F4E091C202ED
:1018F000F091C30290818091C402809589238083F6
:101900001092CA011092C9010895E89409C097FB8A
:101910003EF490958095709561957F4F8F4F9F4FC6
:101920009923A9F0F92F96E9BB279395F69587950A
:1019300077956795B795F111F8CFFAF4BB0F11F4CD
:1019400060FF1BC06F5F7F4F8F4F9F4F16C0882374
:1019500011F096E911C0772321F09EE8872F762FAA
:1019600005C0662371F096E8862F70E060E02AF0EB
:101970009A95660F771F881FDAF7880F96958795D7
:1019800097F908950E94D50C0C94460D0E94380DCD
:1019900038F00E943F0D20F0952311F00C942F0D8C
:1019A0000C94350D11240C947A0D0E94570D70F390
:1019B000959FC1F3950F50E0551F629FF001729FF4
:1019C000BB27F00DB11D639FAA27F00DB11DAA1F03
:1019D000649F6627B00DA11D661F829F2227B00D50
:1019E000A11D621F739FB00DA11D621F839FA00DDB
:1019F000611D221F749F3327A00D611D231F849F2B
:101A0000600D211D822F762F6A2F11249F57504081
:101A10009AF0F1F088234AF0EE0FFF1FBB1F661FFC
:101A2000771F881F91505040A9F79E3F510580F0C5
:101A30000C942F0D0C947A0D5F3FE4F3983ED4F391
:101A4000869577956795B795F795E7959F5FC1F769
:101A5000FE2B880F911D9695879597F9089597F914
:101A60009F6780E870E060E008959FEF80EC089544
:101A700000240A941616170618060906089500246D
:101A80000A9412161306140605060895092E0394E7
:101A9000000C11F4882352F0BB0F40F4BF2B11F45B
:101AA00060FF04C06F5F7F4F8F4F9F4F089557FDBA
:101AB0009058440F551F59F05F3F71F04795880FBC
:101AC00097FB991F61F09F3F79F087950895121653
:101AD00013061406551FF2CF4695F1DF08C01616FF
:101AE00017061806991FF1CF8695710561050894B0
:101AF0000895E894BB2766277727CB0197F90895C7
:101B0000052E97FB1EF400940E94970D57FD07D0F9
:101B10000E94E90D07FC03D04EF40C94970D5095EC
:101B20004095309521953F4F4F4F5F4F08959095C9
:101B30008095709561957F4F8F4F9F4F08950E94BC
:101B40000B0EA59F900DB49F900DA49F800D911D2D
:101B500011240895B7FF0C949F0D0E949F0D821BC6
:101B6000930B08952F923F924F925F926F927F92C4
:101B70008F929F92AF92BF92CF92DF92EF92FF929D
:101B80000F931F93CF93DF93CDB7DEB7CA1BDB0B49
:101B90000FB6F894DEBF0FBECDBF09942A883988EE
:101BA00048885F846E847D848C849B84AA84B984F5
:101BB000C884DF80EE80FD800C811B81AA81B98101
:101BC000CE0FD11D0FB6F894DEBF0FBECDBFED0115
:101BD0000895A1E21A2EAA1BBB1BFD010DC0AA1F6E
:101BE000BB1FEE1FFF1FA217B307E407F50720F086
:101BF000A21BB30BE40BF50B661F771F881F991F01
:101C00001A9469F760957095809590959B01AC0149
:101C1000BD01CF010895A29FB001B39FC001A39F52
:101C2000700D811D1124911DB29F700D811D112415
:101C3000911D08950E94210E6894B1110C947A0DA3
:101C400008950E945F0D88F09F5798F0B92F99274B
:101C5000B751B0F0E1F0660F771F881F991F1AF097
:101C6000BA95C9F714C0B13091F00E94790DB1E076
:101C700008950C94790D672F782F8827B85F39F075
:101C8000B93FCCF3869577956795B395D9F73EF430
:101C900090958095709561957F4F8F4F9F4F0895D8
:101CA000991B79E004C0991F961708F0961B881FAE
:101CB0007A95C9F780950895EE0FFF1F0590F4916E
:101CC000E02D09940F931F93CF93DF9382309105FA
:101CD00010F482E090E0E091EB02F091EC0230E051
:101CE00020E0B0E0A0E0309799F42115310509F427
:101CF0004AC0281B390B24303105D8F58A819B81D5
:101D00006115710589F1FB0193838283FE0111C086
:101D1000408151810281138148175907E0F048172B
:101D2000590799F4109761F012960C931297139635
:101D30001C933296CF01DF91CF911F910F9108959F
:101D40000093EB021093EC02F4CF2115310551F012
:101D50004217530738F0A901DB019A01BD01DF01E9
:101D6000F801C1CFEF01F9CF9093EC028093EB0221
:101D7000CDCFFE01E20FF31F8193919322503109E1
:101D800039832883D7CF2091E9023091EA02232BAF
:101D900041F420910301309104013093EA02209331
:101DA000E90220910101309102012115310541F430
:101DB0002DB73EB74091050150910601241B350B0C
:101DC000E091E902F091EA02E217F307A0F42E1B7A
:101DD0003F0B2817390778F0AC014E5F5F4F24178F
:101DE000350748F04E0F5F1F5093EA024093E90217
:101DF000819391939FCFF0E0E0E09CCFCF93DF936E
:101E00000097E9F0FC01329713821282A091EB0255
:101E1000B091EC02ED0130E020E01097A1F42081B8
:101E20003181820F931F2091E9023091EA02281735
:101E3000390709F061C0F093EA02E093E902DF910B
:101E4000CF910895EA01CE17DF07E8F54A815B815B
:101E50009E0141155105B1F7E901FB83EA834991E0
:101E60005991C40FD51FEC17FD0761F48081918152
:101E70000296840F951FE90199838883828193815B
:101E80009B838A83F0E0E0E012968D919C911397FA
:101E90000097B9F52D913C911197CD010296820FD3
:101EA000931F2091E9023091EA022817390739F689
:101EB000309751F51092EC021092EB02B093EA02C7
:101EC000A093E902BCCFD383C28340815181840FA8
:101ED000951FC817D90761F44E5F5F4F88819981BC
:101EE000480F591F518340838A819B81938382834A
:101EF0002115310509F0B0CFF093EC02E093EB022D
:101F00009ECFFD01DC01C0CF13821282D7CFB0E09B
:101F1000A0E0EDE8FFE00C94B40D8C01009751F4C3
:101F2000CB010E94620E8C01C801CDB7DEB7E0E1A3
:101F30000C94D00DFC01E60FF71F9C0122503109D3
:101F4000E217F30708F49DC0D901CD91DC911197F8
:101F5000C617D70798F0C530D10530F3CE010497E6
:101F60008617970708F3C61BD70B2297C193D19307
:101F70006D937C93CF010E94FE0ED6CF5B01AC1A0D
:101F8000BD0A4C018C0E9D1EA091EB02B091EC029B
:101F9000512C412CF12CE12C109731F58091E90264
:101FA0009091EA028815990509F05CC0461657061B
:101FB00008F058C08091010190910201009741F40E
:101FC0008DB79EB74091050150910601841B950B7A
:101FD000E817F90708F055C0F093EA02E093E90228
:101FE000F90171836083A0CF8D919C911197129616
:101FF0006C90129713967C901397A815B90559F514
:102000006C0142E0C40ED11CCA14DB0420F1AC0107
:102010004A195B09DA011296159780F06282738281
:1020200051834083D9016D937C93E114F10471F0E5
:10203000D7011396FC93EE93129776CF22968C0FCE
:102040009D1FF90191838083F301EFCFF093EC02A0
:10205000E093EB0269CF4816590608F42C017D0184
:10206000D3019ACFCB010E94620E7C01009749F008
:10207000AE01B8010E944410C8010E94FE0E870103
:1020800053CF10E000E050CFFB01DC0102C0019013
:102090000D9241505040D8F70895FB01DC010190AA
:1020A0000D920020E1F7089510E0C3E6D0E004C0EF
:1020B000FE010E945C0E2196C436D107C9F7F89440
:0220C000FFCF50
:1020C200FF0000ED02800000000000A303030330C4
:1020D20003F00361033F03530300000000290403DC
:1020E20003BD04280485049B0410040000000012B0
:1020F200060303BD04BC0420205448455245204930
:102102005320464952452000204E4F542053414609
:1021120045204845524520004649524520414C45FC
:10212200525421212100202020204E4F2046495286
:10213200452020202000202020414C4C20534146A5
:06214200452020200000F2
:00000001FF
